{
  "_format": "hh-sol-artifact-1",
  "contractName": "PNSArtists",
  "sourceName": "contracts/PNSArtists.sol",
  "abi": [
    {
      "inputs": [],
      "stateMutability": "payable",
      "type": "constructor"
    },
    {
      "inputs": [],
      "name": "artistsNetworkChannel",
      "outputs": [
        {
          "internalType": "address",
          "name": "",
          "type": "address"
        }
      ],
      "stateMutability": "view",
      "type": "function"
    },
    {
      "inputs": [
        {
          "internalType": "string",
          "name": "title",
          "type": "string"
        },
        {
          "internalType": "string",
          "name": "body",
          "type": "string"
        }
      ],
      "name": "notify",
      "outputs": [],
      "stateMutability": "nonpayable",
      "type": "function"
    },
    {
      "inputs": [],
      "name": "owner",
      "outputs": [
        {
          "internalType": "address payable",
          "name": "",
          "type": "address"
        }
      ],
      "stateMutability": "view",
      "type": "function"
    }
  ],
  "bytecode": "0x6080604052739e9a2b7687b35be7008a95b3b6173aa3fa9b4ea96000806101000a81548173ffffffffffffffffffffffffffffffffffffffff021916908373ffffffffffffffffffffffffffffffffffffffff16021790555073b3971bcef2d791bc4027bbfedfb47319a4aaaaaa600260006101000a81548173ffffffffffffffffffffffffffffffffffffffff021916908373ffffffffffffffffffffffffffffffffffffffff16021790555033600160006101000a81548173ffffffffffffffffffffffffffffffffffffffff021916908373ffffffffffffffffffffffffffffffffffffffff1602179055506106c1806100fd6000396000f3fe608060405234801561001057600080fd5b50600436106100415760003560e01c80638da5cb5b14610046578063b35c632014610064578063eda00e3914610080575b600080fd5b61004e61009e565b60405161005b919061021f565b60405180910390f35b61007e60048036038101906100799190610394565b6100c4565b005b6100886101ba565b604051610095919061042d565b60405180910390f35b600160009054906101000a900473ffffffffffffffffffffffffffffffffffffffff1681565b600260009054906101000a900473ffffffffffffffffffffffffffffffffffffffff1673ffffffffffffffffffffffffffffffffffffffff1663ba3d69d760008054906101000a900473ffffffffffffffffffffffffffffffffffffffff1660008054906101000a900473ffffffffffffffffffffffffffffffffffffffff16858560405160200161015792919061059d565b6040516020818303038152906040526040518463ffffffff1660e01b81526004016101849392919061064d565b600060405180830381600087803b15801561019e57600080fd5b505af11580156101b2573d6000803e3d6000fd5b505050505050565b60008054906101000a900473ffffffffffffffffffffffffffffffffffffffff1681565b600073ffffffffffffffffffffffffffffffffffffffff82169050919050565b6000610209826101de565b9050919050565b610219816101fe565b82525050565b60006020820190506102346000830184610210565b92915050565b6000604051905090565b600080fd5b600080fd5b600080fd5b600080fd5b6000601f19601f8301169050919050565b7f4e487b7100000000000000000000000000000000000000000000000000000000600052604160045260246000fd5b6102a182610258565b810181811067ffffffffffffffff821117156102c0576102bf610269565b5b80604052505050565b60006102d361023a565b90506102df8282610298565b919050565b600067ffffffffffffffff8211156102ff576102fe610269565b5b61030882610258565b9050602081019050919050565b82818337600083830152505050565b6000610337610332846102e4565b6102c9565b90508281526020810184848401111561035357610352610253565b5b61035e848285610315565b509392505050565b600082601f83011261037b5761037a61024e565b5b813561038b848260208601610324565b91505092915050565b600080604083850312156103ab576103aa610244565b5b600083013567ffffffffffffffff8111156103c9576103c8610249565b5b6103d585828601610366565b925050602083013567ffffffffffffffff8111156103f6576103f5610249565b5b61040285828601610366565b9150509250929050565b6000610417826101de565b9050919050565b6104278161040c565b82525050565b6000602082019050610442600083018461041e565b92915050565b600081905092915050565b7f3000000000000000000000000000000000000000000000000000000000000000600082015250565b6000610489600183610448565b915061049482610453565b600182019050919050565b7f2b00000000000000000000000000000000000000000000000000000000000000600082015250565b60006104d5600183610448565b91506104e08261049f565b600182019050919050565b7f3100000000000000000000000000000000000000000000000000000000000000600082015250565b6000610521600183610448565b915061052c826104eb565b600182019050919050565b600081519050919050565b60005b83811015610560578082015181840152602081019050610545565b60008484015250505050565b600061057782610537565b6105818185610448565b9350610591818560208601610542565b80840191505092915050565b60006105a88261047c565b91506105b3826104c8565b91506105be82610514565b91506105c9826104c8565b91506105d5828561056c565b91506105e0826104c8565b91506105ec828461056c565b91508190509392505050565b600081519050919050565b600082825260208201905092915050565b600061061f826105f8565b6106298185610603565b9350610639818560208601610542565b61064281610258565b840191505092915050565b6000606082019050610662600083018661041e565b61066f602083018561041e565b81810360408301526106818184610614565b905094935050505056fea2646970667358221220a698e7a21cf4f97313083ef87c55827e3fd0742bc44a7171d9bdc223067ad71864736f6c63430008110033",
  "linkReferences": {},
  "deployedLinkReferences": {}
}